{
  "contractName": "LANDRegistry",
  "abi": [
    {
      "constant": true,
      "inputs": [],
      "name": "name",
      "outputs": [
        {
          "name": "",
          "type": "string"
        }
      ],
      "payable": false,
      "stateMutability": "view",
      "type": "function"
    },
    {
      "constant": true,
      "inputs": [
        {
          "name": "x",
          "type": "int256"
        },
        {
          "name": "y",
          "type": "int256"
        }
      ],
      "name": "ownerOfLand",
      "outputs": [
        {
          "name": "",
          "type": "address"
        }
      ],
      "payable": false,
      "stateMutability": "view",
      "type": "function"
    },
    {
      "constant": false,
      "inputs": [
        {
          "name": "user",
          "type": "address"
        }
      ],
      "name": "setLatestToNow",
      "outputs": [],
      "payable": false,
      "stateMutability": "nonpayable",
      "type": "function"
    },
    {
      "constant": true,
      "inputs": [
        {
          "name": "x",
          "type": "int256"
        },
        {
          "name": "y",
          "type": "int256"
        }
      ],
      "name": "buildTokenId",
      "outputs": [
        {
          "name": "",
          "type": "uint256"
        }
      ],
      "payable": false,
      "stateMutability": "view",
      "type": "function"
    },
    {
      "constant": true,
      "inputs": [],
      "name": "totalSupply",
      "outputs": [
        {
          "name": "",
          "type": "uint256"
        }
      ],
      "payable": false,
      "stateMutability": "view",
      "type": "function"
    },
    {
      "constant": false,
      "inputs": [
        {
          "name": "x",
          "type": "int256"
        },
        {
          "name": "y",
          "type": "int256"
        },
        {
          "name": "beneficiary",
          "type": "address"
        }
      ],
      "name": "assignNewParcel",
      "outputs": [],
      "payable": false,
      "stateMutability": "nonpayable",
      "type": "function"
    },
    {
      "constant": false,
      "inputs": [
        {
          "name": "x",
          "type": "int256[]"
        },
        {
          "name": "y",
          "type": "int256[]"
        },
        {
          "name": "data",
          "type": "string"
        }
      ],
      "name": "updateManyLandData",
      "outputs": [],
      "payable": false,
      "stateMutability": "nonpayable",
      "type": "function"
    },
    {
      "constant": false,
      "inputs": [
        {
          "name": "_assetId",
          "type": "uint256"
        },
        {
          "name": "_data",
          "type": "string"
        }
      ],
      "name": "generate",
      "outputs": [],
      "payable": false,
      "stateMutability": "nonpayable",
      "type": "function"
    },
    {
      "constant": false,
      "inputs": [
        {
          "name": "x",
          "type": "int256"
        },
        {
          "name": "y",
          "type": "int256"
        },
        {
          "name": "beneficiary",
          "type": "address"
        },
        {
          "name": "data",
          "type": "string"
        }
      ],
      "name": "assignNewParcel",
      "outputs": [],
      "payable": false,
      "stateMutability": "nonpayable",
      "type": "function"
    },
    {
      "constant": false,
      "inputs": [
        {
          "name": "x",
          "type": "int256"
        },
        {
          "name": "y",
          "type": "int256"
        },
        {
          "name": "to",
          "type": "address"
        }
      ],
      "name": "transferLand",
      "outputs": [],
      "payable": false,
      "stateMutability": "nonpayable",
      "type": "function"
    },
    {
      "constant": true,
      "inputs": [
        {
          "name": "_holder",
          "type": "address"
        }
      ],
      "name": "assetsCount",
      "outputs": [
        {
          "name": "",
          "type": "uint256"
        }
      ],
      "payable": false,
      "stateMutability": "view",
      "type": "function"
    },
    {
      "constant": false,
      "inputs": [
        {
          "name": "",
          "type": "bytes"
        }
      ],
      "name": "initialize",
      "outputs": [],
      "payable": false,
      "stateMutability": "nonpayable",
      "type": "function"
    },
    {
      "constant": false,
      "inputs": [
        {
          "name": "_assetId",
          "type": "uint256"
        }
      ],
      "name": "generate",
      "outputs": [],
      "payable": false,
      "stateMutability": "nonpayable",
      "type": "function"
    },
    {
      "constant": true,
      "inputs": [
        {
          "name": "x",
          "type": "int256"
        },
        {
          "name": "y",
          "type": "int256"
        }
      ],
      "name": "landData",
      "outputs": [
        {
          "name": "",
          "type": "string"
        }
      ],
      "payable": false,
      "stateMutability": "view",
      "type": "function"
    },
    {
      "constant": false,
      "inputs": [
        {
          "name": "x",
          "type": "int256[]"
        },
        {
          "name": "y",
          "type": "int256[]"
        },
        {
          "name": "to",
          "type": "address"
        }
      ],
      "name": "transferManyLand",
      "outputs": [],
      "payable": false,
      "stateMutability": "nonpayable",
      "type": "function"
    },
    {
      "constant": true,
      "inputs": [
        {
          "name": "_assetId",
          "type": "uint256"
        }
      ],
      "name": "exists",
      "outputs": [
        {
          "name": "",
          "type": "bool"
        }
      ],
      "payable": false,
      "stateMutability": "view",
      "type": "function"
    },
    {
      "constant": true,
      "inputs": [
        {
          "name": "_operator",
          "type": "address"
        },
        {
          "name": "_assetHolder",
          "type": "address"
        }
      ],
      "name": "isOperatorAuthorizedFor",
      "outputs": [
        {
          "name": "",
          "type": "bool"
        }
      ],
      "payable": false,
      "stateMutability": "view",
      "type": "function"
    },
    {
      "constant": false,
      "inputs": [],
      "name": "ping",
      "outputs": [],
      "payable": false,
      "stateMutability": "nonpayable",
      "type": "function"
    },
    {
      "constant": true,
      "inputs": [],
      "name": "description",
      "outputs": [
        {
          "name": "",
          "type": "string"
        }
      ],
      "payable": false,
      "stateMutability": "view",
      "type": "function"
    },
    {
      "constant": false,
      "inputs": [
        {
          "name": "x",
          "type": "int256[]"
        },
        {
          "name": "y",
          "type": "int256[]"
        },
        {
          "name": "beneficiary",
          "type": "address"
        }
      ],
      "name": "assignMultipleParcels",
      "outputs": [],
      "payable": false,
      "stateMutability": "nonpayable",
      "type": "function"
    },
    {
      "constant": true,
      "inputs": [],
      "name": "owner",
      "outputs": [
        {
          "name": "",
          "type": "address"
        }
      ],
      "payable": false,
      "stateMutability": "view",
      "type": "function"
    },
    {
      "constant": true,
      "inputs": [],
      "name": "symbol",
      "outputs": [
        {
          "name": "",
          "type": "string"
        }
      ],
      "payable": false,
      "stateMutability": "view",
      "type": "function"
    },
    {
      "constant": false,
      "inputs": [
        {
          "name": "x",
          "type": "int256[]"
        },
        {
          "name": "y",
          "type": "int256[]"
        }
      ],
      "name": "clearLand",
      "outputs": [],
      "payable": false,
      "stateMutability": "nonpayable",
      "type": "function"
    },
    {
      "constant": false,
      "inputs": [
        {
          "name": "_assetId",
          "type": "uint256"
        }
      ],
      "name": "destroy",
      "outputs": [],
      "payable": false,
      "stateMutability": "nonpayable",
      "type": "function"
    },
    {
      "constant": true,
      "inputs": [
        {
          "name": "x",
          "type": "int256"
        },
        {
          "name": "y",
          "type": "int256"
        }
      ],
      "name": "exists",
      "outputs": [
        {
          "name": "",
          "type": "bool"
        }
      ],
      "payable": false,
      "stateMutability": "view",
      "type": "function"
    },
    {
      "constant": false,
      "inputs": [
        {
          "name": "_to",
          "type": "address"
        },
        {
          "name": "_assetId",
          "type": "uint256"
        }
      ],
      "name": "transfer",
      "outputs": [],
      "payable": false,
      "stateMutability": "nonpayable",
      "type": "function"
    },
    {
      "constant": true,
      "inputs": [
        {
          "name": "_assetId",
          "type": "uint256"
        }
      ],
      "name": "assetData",
      "outputs": [
        {
          "name": "",
          "type": "string"
        }
      ],
      "payable": false,
      "stateMutability": "view",
      "type": "function"
    },
    {
      "constant": false,
      "inputs": [
        {
          "name": "_to",
          "type": "address"
        },
        {
          "name": "_assetId",
          "type": "uint256"
        },
        {
          "name": "userData",
          "type": "bytes"
        },
        {
          "name": "operatorData",
          "type": "bytes"
        }
      ],
      "name": "operatorTransfer",
      "outputs": [],
      "payable": false,
      "stateMutability": "nonpayable",
      "type": "function"
    },
    {
      "constant": false,
      "inputs": [
        {
          "name": "_operator",
          "type": "address"
        },
        {
          "name": "_authorized",
          "type": "bool"
        }
      ],
      "name": "authorizeOperator",
      "outputs": [],
      "payable": false,
      "stateMutability": "nonpayable",
      "type": "function"
    },
    {
      "constant": false,
      "inputs": [
        {
          "name": "_to",
          "type": "address"
        },
        {
          "name": "_assetId",
          "type": "uint256"
        },
        {
          "name": "_userData",
          "type": "bytes"
        }
      ],
      "name": "transfer",
      "outputs": [],
      "payable": false,
      "stateMutability": "nonpayable",
      "type": "function"
    },
    {
      "constant": true,
      "inputs": [
        {
          "name": "_holder",
          "type": "address"
        },
        {
          "name": "_index",
          "type": "uint256"
        }
      ],
      "name": "assetByIndex",
      "outputs": [
        {
          "name": "",
          "type": "uint256"
        }
      ],
      "payable": false,
      "stateMutability": "view",
      "type": "function"
    },
    {
      "constant": true,
      "inputs": [
        {
          "name": "_holder",
          "type": "address"
        }
      ],
      "name": "allAssetsOf",
      "outputs": [
        {
          "name": "",
          "type": "uint256[]"
        }
      ],
      "payable": false,
      "stateMutability": "view",
      "type": "function"
    },
    {
      "constant": false,
      "inputs": [
        {
          "name": "x",
          "type": "int256"
        },
        {
          "name": "y",
          "type": "int256"
        },
        {
          "name": "_metadata",
          "type": "string"
        }
      ],
      "name": "updateLandData",
      "outputs": [],
      "payable": false,
      "stateMutability": "nonpayable",
      "type": "function"
    },
    {
      "constant": false,
      "inputs": [
        {
          "name": "_assetId",
          "type": "uint256"
        },
        {
          "name": "_beneficiary",
          "type": "address"
        },
        {
          "name": "_data",
          "type": "string"
        }
      ],
      "name": "generate",
      "outputs": [],
      "payable": false,
      "stateMutability": "nonpayable",
      "type": "function"
    },
    {
      "constant": true,
      "inputs": [
        {
          "name": "_assetId",
          "type": "uint256"
        }
      ],
      "name": "holderOf",
      "outputs": [
        {
          "name": "",
          "type": "address"
        }
      ],
      "payable": false,
      "stateMutability": "view",
      "type": "function"
    },
    {
      "constant": false,
      "inputs": [
        {
          "name": "_newOwner",
          "type": "address"
        }
      ],
      "name": "transferOwnership",
      "outputs": [],
      "payable": false,
      "stateMutability": "nonpayable",
      "type": "function"
    },
    {
      "constant": false,
      "inputs": [
        {
          "name": "_assetId",
          "type": "uint256"
        },
        {
          "name": "_data",
          "type": "string"
        }
      ],
      "name": "update",
      "outputs": [],
      "payable": false,
      "stateMutability": "nonpayable",
      "type": "function"
    },
    {
      "anonymous": false,
      "inputs": [
        {
          "indexed": true,
          "name": "from",
          "type": "address"
        },
        {
          "indexed": true,
          "name": "to",
          "type": "address"
        },
        {
          "indexed": true,
          "name": "assetId",
          "type": "uint256"
        },
        {
          "indexed": false,
          "name": "operator",
          "type": "address"
        },
        {
          "indexed": false,
          "name": "userData",
          "type": "bytes"
        },
        {
          "indexed": false,
          "name": "operatorData",
          "type": "bytes"
        }
      ],
      "name": "Transfer",
      "type": "event"
    },
    {
      "anonymous": false,
      "inputs": [
        {
          "indexed": true,
          "name": "holder",
          "type": "address"
        },
        {
          "indexed": true,
          "name": "assetId",
          "type": "uint256"
        },
        {
          "indexed": true,
          "name": "operator",
          "type": "address"
        },
        {
          "indexed": false,
          "name": "data",
          "type": "string"
        }
      ],
      "name": "Create",
      "type": "event"
    },
    {
      "anonymous": false,
      "inputs": [
        {
          "indexed": true,
          "name": "assetId",
          "type": "uint256"
        },
        {
          "indexed": true,
          "name": "holder",
          "type": "address"
        },
        {
          "indexed": true,
          "name": "operator",
          "type": "address"
        },
        {
          "indexed": false,
          "name": "data",
          "type": "string"
        }
      ],
      "name": "Update",
      "type": "event"
    },
    {
      "anonymous": false,
      "inputs": [
        {
          "indexed": true,
          "name": "holder",
          "type": "address"
        },
        {
          "indexed": true,
          "name": "assetId",
          "type": "uint256"
        },
        {
          "indexed": true,
          "name": "operator",
          "type": "address"
        }
      ],
      "name": "Destroy",
      "type": "event"
    },
    {
      "anonymous": false,
      "inputs": [
        {
          "indexed": true,
          "name": "operator",
          "type": "address"
        },
        {
          "indexed": true,
          "name": "holder",
          "type": "address"
        },
        {
          "indexed": false,
          "name": "authorized",
          "type": "bool"
        }
      ],
      "name": "AuthorizeOperator",
      "type": "event"
    },
    {
      "anonymous": false,
      "inputs": [
        {
          "indexed": false,
          "name": "_prevOwner",
          "type": "address"
        },
        {
          "indexed": false,
          "name": "_newOwner",
          "type": "address"
        }
      ],
      "name": "OwnerUpdate",
      "type": "event"
    }
  ],
  "bytecode": "0x606060405233600160006101000a81548173ffffffffffffffffffffffffffffffffffffffff021916908373ffffffffffffffffffffffffffffffffffffffff16021790555061302e806100546000396000f3006060604052600436106101cd576000357c0100000000000000000000000000000000000000000000000000000000900463ffffffff16806306fdde03146101d25780631080f25114610260578063133cbe3a146102cc5780631806639b1461030557806318160ddd146103455780631cc69ac11461036e5780631e4c7736146103b9578063231c1d431461049657806323b44cfc146104fc57806335e64aaa1461058a578063412cbc06146105d5578063439fab91146106225780634a7dd5231461067f5780634c4bf936146106a25780634dad9003146107475780634f558e791461080057806355ef29131461083b5780635c36b186146108ab5780637284e416146108c05780638668a4161461094e5780638da5cb5b14610a0757806395d89b4114610a5c5780639cf6699714610aea5780639d11877014610b84578063a8d8812714610ba7578063a9059cbb14610beb578063ac823a7e14610c2d578063ae5a9bb414610cc9578063b0994d4a14610d91578063be45fd6214610dd5578063d2953f8414610e5a578063d2cafe2d14610eb0578063d4dd159414610f3e578063d944534a14610fad578063dbacc23714611032578063f2fde38b14611095578063f745630f146110ce575b600080fd5b34156101dd57600080fd5b6101e5611134565b6040518080602001828103825283818151815260200191508051906020019080838360005b8381101561022557808201518184015260208101905061020a565b50505050905090810190601f1680156102525780820380516001836020036101000a031916815260200191505b509250505060405180910390f35b341561026b57600080fd5b61028a60048080359060200190919080359060200190919050506111dc565b604051808273ffffffffffffffffffffffffffffffffffffffff1673ffffffffffffffffffffffffffffffffffffffff16815260200191505060405180910390f35b34156102d757600080fd5b610303600480803573ffffffffffffffffffffffffffffffffffffffff169060200190919050506111f8565b005b341561031057600080fd5b61032f6004808035906020019091908035906020019091905050611298565b6040518082815260200191505060405180910390f35b341561035057600080fd5b6103586112ec565b6040518082815260200191505060405180910390f35b341561037957600080fd5b6103b7600480803590602001909190803590602001909190803573ffffffffffffffffffffffffffffffffffffffff169060200190919050506112f6565b005b34156103c457600080fd5b6104946004808035906020019082018035906020019080806020026020016040519081016040528093929190818152602001838360200280828437820191505050505050919080359060200190820180359060200190808060200260200160405190810160405280939291908181526020018383602002808284378201915050505050509190803590602001908201803590602001908080601f0160208091040260200160405190810160405280939291908181526020018383808284378201915050505050509190505061131f565b005b34156104a157600080fd5b6104fa600480803590602001909190803590602001908201803590602001908080601f01602080910402602001604051908101604052809392919081815260200183838082843782019150505050505091905050611393565b005b341561050757600080fd5b610588600480803590602001909190803590602001909190803573ffffffffffffffffffffffffffffffffffffffff1690602001909190803590602001908201803590602001908080601f016020809104026020016040519081016040528093929190818152602001838380828437820191505050505050919050506113a2565b005b341561059557600080fd5b6105d3600480803590602001909190803590602001909190803573ffffffffffffffffffffffffffffffffffffffff169060200190919050506113bc565b005b34156105e057600080fd5b61060c600480803573ffffffffffffffffffffffffffffffffffffffff169060200190919050506113d4565b6040518082815260200191505060405180910390f35b341561062d57600080fd5b61067d600480803590602001908201803590602001908080601f01602080910402602001604051908101604052809392919081815260200183838082843782019150505050505091905050611420565b005b341561068a57600080fd5b6106a0600480803590602001909190505061152e565b005b34156106ad57600080fd5b6106cc600480803590602001909190803590602001909190505061154c565b6040518080602001828103825283818151815260200191508051906020019080838360005b8381101561070c5780820151818401526020810190506106f1565b50505050905090810190601f1680156107395780820380516001836020036101000a031916815260200191505b509250505060405180910390f35b341561075257600080fd5b6107fe6004808035906020019082018035906020019080806020026020016040519081016040528093929190818152602001838360200280828437820191505050505050919080359060200190820180359060200190808060200260200160405190810160405280939291908181526020018383602002808284378201915050505050509190803573ffffffffffffffffffffffffffffffffffffffff1690602001909190505061156e565b005b341561080b57600080fd5b61082160048080359060200190919050506115da565b604051808215151515815260200191505060405180910390f35b341561084657600080fd5b610891600480803573ffffffffffffffffffffffffffffffffffffffff1690602001909190803573ffffffffffffffffffffffffffffffffffffffff16906020019091905050611630565b604051808215151515815260200191505060405180910390f35b34156108b657600080fd5b6108be6116c4565b005b34156108cb57600080fd5b6108d361170a565b6040518080602001828103825283818151815260200191508051906020019080838360005b838110156109135780820151818401526020810190506108f8565b50505050905090810190601f1680156109405780820380516001836020036101000a031916815260200191505b509250505060405180910390f35b341561095957600080fd5b610a056004808035906020019082018035906020019080806020026020016040519081016040528093929190818152602001838360200280828437820191505050505050919080359060200190820180359060200190808060200260200160405190810160405280939291908181526020018383602002808284378201915050505050509190803573ffffffffffffffffffffffffffffffffffffffff169060200190919050506117b2565b005b3415610a1257600080fd5b610a1a611826565b604051808273ffffffffffffffffffffffffffffffffffffffff1673ffffffffffffffffffffffffffffffffffffffff16815260200191505060405180910390f35b3415610a6757600080fd5b610a6f61184c565b6040518080602001828103825283818151815260200191508051906020019080838360005b83811015610aaf578082015181840152602081019050610a94565b50505050905090810190601f168015610adc5780820380516001836020036101000a031916815260200191505b509250505060405180910390f35b3415610af557600080fd5b610b82600480803590602001908201803590602001908080602002602001604051908101604052809392919081815260200183836020028082843782019150505050505091908035906020019082018035906020019080806020026020016040519081016040528093929190818152602001838360200280828437820191505050505050919050506118f4565b005b3415610b8f57600080fd5b610ba56004808035906020019091905050611a23565b005b3415610bb257600080fd5b610bd16004808035906020019091908035906020019091905050611b4a565b604051808215151515815260200191505060405180910390f35b3415610bf657600080fd5b610c2b600480803573ffffffffffffffffffffffffffffffffffffffff16906020019091908035906020019091905050611b66565b005b3415610c3857600080fd5b610c4e6004808035906020019091905050611c07565b6040518080602001828103825283818151815260200191508051906020019080838360005b83811015610c8e578082015181840152602081019050610c73565b50505050905090810190601f168015610cbb5780820380516001836020036101000a031916815260200191505b509250505060405180910390f35b3415610cd457600080fd5b610d8f600480803573ffffffffffffffffffffffffffffffffffffffff1690602001909190803590602001909190803590602001908201803590602001908080601f0160208091040260200160405190810160405280939291908181526020018383808284378201915050505050509190803590602001908201803590602001908080601f01602080910402602001604051908101604052809392919081815260200183838082843782019150505050505091905050611cc2565b005b3415610d9c57600080fd5b610dd3600480803573ffffffffffffffffffffffffffffffffffffffff169060200190919080351515906020019091905050611d88565b005b3415610de057600080fd5b610e58600480803573ffffffffffffffffffffffffffffffffffffffff1690602001909190803590602001909190803590602001908201803590602001908080601f01602080910402602001604051908101604052809392919081815260200183838082843782019150505050505091905050611e40565b005b3415610e6557600080fd5b610e9a600480803573ffffffffffffffffffffffffffffffffffffffff16906020019091908035906020019091905050611ed2565b6040518082815260200191505060405180910390f35b3415610ebb57600080fd5b610ee7600480803573ffffffffffffffffffffffffffffffffffffffff16906020019091905050611f34565b6040518080602001828103825283818151815260200191508051906020019060200280838360005b83811015610f2a578082015181840152602081019050610f0f565b505050509050019250505060405180910390f35b3415610f4957600080fd5b610fab600480803590602001909190803590602001909190803590602001908201803590602001908080601f01602080910402602001604051908101604052809392919081815260200183838082843782019150505050505091905050612047565b005b3415610fb857600080fd5b611030600480803590602001909190803573ffffffffffffffffffffffffffffffffffffffff1690602001909190803590602001908201803590602001908080601f0160208091040260200160405190810160405280939291908181526020018383808284378201915050505050509190505061205f565b005b341561103d57600080fd5b61105360048080359060200190919050506120c8565b604051808273ffffffffffffffffffffffffffffffffffffffff1673ffffffffffffffffffffffffffffffffffffffff16815260200191505060405180910390f35b34156110a057600080fd5b6110cc600480803573ffffffffffffffffffffffffffffffffffffffff16906020019091905050612105565b005b34156110d957600080fd5b611132600480803590602001909190803590602001908201803590602001908080601f016020809104026020016040519081016040528093929190818152602001838380828437820191505050505050919050506121ff565b005b61113c612ebc565b60028054600181600116156101000203166002900480601f0160208091040260200160405190810160405280929190818152602001828054600181600116156101000203166002900480156111d25780601f106111a7576101008083540402835291602001916111d2565b820191906000526020600020905b8154815290600101906020018083116111b557829003601f168201915b5050505050905090565b60006111f06111eb8484611298565b6120c8565b905092915050565b600160009054906101000a900473ffffffffffffffffffffffffffffffffffffffff1673ffffffffffffffffffffffffffffffffffffffff163373ffffffffffffffffffffffffffffffffffffffff1614151561125157fe5b42600c60008373ffffffffffffffffffffffffffffffffffffffff1673ffffffffffffffffffffffffffffffffffffffff1681526020019081526020016000208190555050565b60006fffffffffffffffffffffffffffffffff82167fffffffffffffffffffffffffffffffff0000000000000000000000000000000070010000000000000000000000000000000085021617905092915050565b6000600554905090565b61131a6113038484611298565b82602060405190810160405280600081525061205f565b505050565b60008251845114151561133157600080fd5b600090505b835181101561138d5761138061137a858381518110151561135357fe5b90602001906020020151858481518110151561136b57fe5b90602001906020020151611298565b836121ff565b8080600101915050611336565b50505050565b61139e82338361205f565b5050565b6113b66113af8585611298565b838361205f565b50505050565b6113cf816113ca8585611298565b611b66565b505050565b6000600660008373ffffffffffffffffffffffffffffffffffffffff1673ffffffffffffffffffffffffffffffffffffffff168152602001908152602001600020805490509050919050565b6040805190810160405280601181526020017f446563656e7472616c616e64204c414e440000000000000000000000000000008152506002908051906020019061146b929190612ed0565b506040805190810160405280600481526020017f4c414e4400000000000000000000000000000000000000000000000000000000815250600390805190602001906114b7929190612ed0565b50606060405190810160405280603381526020017f436f6e747261637420746861742073746f7265732074686520446563656e747281526020017f616c616e64204c414e44207265676973747279000000000000000000000000008152506004908051906020019061152a929190612ed0565b5050565b6115498133602060405190810160405280600081525061205f565b50565b611554612ebc565b6115666115618484611298565b611c07565b905092915050565b60008251845114151561158057600080fd5b6000905083518110156115d3576115ce826115c986848151811015156115a257fe5b9060200190602002015186858151811015156115ba57fe5b90602001906020020151611298565b611b66565b6115d4565b5b50505050565b6000806007600084815260200190815260200160002060009054906101000a900473ffffffffffffffffffffffffffffffffffffffff1673ffffffffffffffffffffffffffffffffffffffff1614159050919050565b6000600a60008373ffffffffffffffffffffffffffffffffffffffff1673ffffffffffffffffffffffffffffffffffffffff16815260200190815260200160002060008473ffffffffffffffffffffffffffffffffffffffff1673ffffffffffffffffffffffffffffffffffffffff16815260200190815260200160002060009054906101000a900460ff16905092915050565b42600c60003373ffffffffffffffffffffffffffffffffffffffff1673ffffffffffffffffffffffffffffffffffffffff16815260200190815260200160002081905550565b611712612ebc565b60048054600181600116156101000203166002900480601f0160208091040260200160405190810160405280929190818152602001828054600181600116156101000203166002900480156117a85780601f1061177d576101008083540402835291602001916117a8565b820191906000526020600020905b81548152906001019060200180831161178b57829003601f168201915b5050505050905090565b60008090505b8351811015611820576118136117fc85838151811015156117d557fe5b9060200190602002015185848151811015156117ed57fe5b90602001906020020151611298565b83602060405190810160405280600081525061205f565b80806001019150506117b8565b50505050565b600160009054906101000a900473ffffffffffffffffffffffffffffffffffffffff1681565b611854612ebc565b60038054600181600116156101000203166002900480601f0160208091040260200160405190810160405280929190818152602001828054600181600116156101000203166002900480156118ea5780601f106118bf576101008083540402835291602001916118ea565b820191906000526020600020905b8154815290600101906020018083116118cd57829003601f168201915b5050505050905090565b60008060008351855114151561190957600080fd5b600092505b8451831015611a1c5761194f858481518110151561192857fe5b90602001906020020151858581518110151561194057fe5b90602001906020020151611298565b915061195a826120c8565b90506301e133804203600c60008373ffffffffffffffffffffffffffffffffffffffff1673ffffffffffffffffffffffffffffffffffffffff168152602001908152602001600020541015611a0f576119b381836123dc565b3373ffffffffffffffffffffffffffffffffffffffff16828273ffffffffffffffffffffffffffffffffffffffff167f17fb4d6623db19a3b9af62c539ac91c3f28840aa8fd5b86a3f59867577caeac760405160405180910390a45b828060010193505061190e565b5050505050565b600160009054906101000a900473ffffffffffffffffffffffffffffffffffffffff1673ffffffffffffffffffffffffffffffffffffffff163373ffffffffffffffffffffffffffffffffffffffff16141515611a7c57fe5b611ab96007600083815260200190815260200160002060009054906101000a900473ffffffffffffffffffffffffffffffffffffffff16826123dc565b3373ffffffffffffffffffffffffffffffffffffffff16816007600084815260200190815260200160002060009054906101000a900473ffffffffffffffffffffffffffffffffffffffff1673ffffffffffffffffffffffffffffffffffffffff167f17fb4d6623db19a3b9af62c539ac91c3f28840aa8fd5b86a3f59867577caeac760405160405180910390a450565b6000611b5e611b598484611298565b6115da565b905092915050565b803373ffffffffffffffffffffffffffffffffffffffff166007600083815260200190815260200160002060009054906101000a900473ffffffffffffffffffffffffffffffffffffffff1673ffffffffffffffffffffffffffffffffffffffff16141515611bd457600080fd5b611c0283836020604051908101604052806000815250600060206040519081016040528060008152506126b9565b505050565b611c0f612ebc565b600960008381526020019081526020016000208054600181600116156101000203166002900480601f016020809104026020016040519081016040528092919081815260200182805460018160011615610100020316600290048015611cb65780601f10611c8b57610100808354040283529160200191611cb6565b820191906000526020600020905b815481529060010190602001808311611c9957829003601f168201915b50505050509050919050565b823373ffffffffffffffffffffffffffffffffffffffff166007600083815260200190815260200160002060009054906101000a900473ffffffffffffffffffffffffffffffffffffffff1673ffffffffffffffffffffffffffffffffffffffff161480611d695750611d68336007600084815260200190815260200160002060009054906101000a900473ffffffffffffffffffffffffffffffffffffffff16611630565b5b1515611d7457600080fd5b611d8185858533866126b9565b5050505050565b8015611db357611d988233611630565b151515611da457600080fd5b611dae8233612ad8565b611dd3565b611dbd8233611630565b1515611dc857600080fd5b611dd28233612b71565b5b3373ffffffffffffffffffffffffffffffffffffffff168273ffffffffffffffffffffffffffffffffffffffff167ffe1dcbb12493a4af760875b0c328b264e6397b8bd47cdc249df0444b4daf1cbc83604051808215151515815260200191505060405180910390a35050565b813373ffffffffffffffffffffffffffffffffffffffff166007600083815260200190815260200160002060009054906101000a900473ffffffffffffffffffffffffffffffffffffffff1673ffffffffffffffffffffffffffffffffffffffff16141515611eae57600080fd5b611ecc848484600060206040519081016040528060008152506126b9565b50505050565b6000600660008473ffffffffffffffffffffffffffffffffffffffff1673ffffffffffffffffffffffffffffffffffffffff16815260200190815260200160002082815481101515611f2057fe5b906000526020600020900154905092915050565b611f3c612f50565b6000611f46612f50565b6000600660008673ffffffffffffffffffffffffffffffffffffffff1673ffffffffffffffffffffffffffffffffffffffff16815260200190815260200160002080549050925082604051805910611f9b5750595b90808252806020026020018201604052509150600090505b8281101561203c57600660008673ffffffffffffffffffffffffffffffffffffffff1673ffffffffffffffffffffffffffffffffffffffff1681526020019081526020016000208181548110151561200757fe5b906000526020600020900154828281518110151561202157fe5b90602001906020020181815250508080600101915050611fb3565b819350505050919050565b61205a6120548484611298565b826121ff565b505050565b600160009054906101000a900473ffffffffffffffffffffffffffffffffffffffff1673ffffffffffffffffffffffffffffffffffffffff163373ffffffffffffffffffffffffffffffffffffffff161415156120b857fe5b6120c3838383612c0a565b505050565b60006007600083815260200190815260200160002060009054906101000a900473ffffffffffffffffffffffffffffffffffffffff169050919050565b600160009054906101000a900473ffffffffffffffffffffffffffffffffffffffff1673ffffffffffffffffffffffffffffffffffffffff163373ffffffffffffffffffffffffffffffffffffffff1614151561215e57fe5b600160009054906101000a900473ffffffffffffffffffffffffffffffffffffffff1673ffffffffffffffffffffffffffffffffffffffff168173ffffffffffffffffffffffffffffffffffffffff16141515156121bb57600080fd5b80600160006101000a81548173ffffffffffffffffffffffffffffffffffffffff021916908373ffffffffffffffffffffffffffffffffffffffff16021790555050565b813373ffffffffffffffffffffffffffffffffffffffff166007600083815260200190815260200160002060009054906101000a900473ffffffffffffffffffffffffffffffffffffffff1673ffffffffffffffffffffffffffffffffffffffff1614806122a657506122a5336007600084815260200190815260200160002060009054906101000a900473ffffffffffffffffffffffffffffffffffffffff16611630565b5b15156122b157600080fd5b816009600085815260200190815260200160002090805190602001906122d8929190612ed0565b503373ffffffffffffffffffffffffffffffffffffffff166007600085815260200190815260200160002060009054906101000a900473ffffffffffffffffffffffffffffffffffffffff1673ffffffffffffffffffffffffffffffffffffffff16847f47c705b9219229ad762fca605f08fb024a3415d0ae78af5d319820c72e510414856040518080602001828103825283818151815260200191508051906020019080838360005b8381101561239d578082015181840152602081019050612382565b50505050905090810190601f1680156123ca5780820380516001836020036101000a031916815260200191505b509250505060405180910390a4505050565b6000806000600860008581526020019081526020016000205492506124136001612405876113d4565b612d3d90919063ffffffff16565b9150600660008673ffffffffffffffffffffffffffffffffffffffff1673ffffffffffffffffffffffffffffffffffffffff1681526020019081526020016000208281548110151561246157fe5b906000526020600020900154905060006007600086815260200190815260200160002060006101000a81548173ffffffffffffffffffffffffffffffffffffffff021916908373ffffffffffffffffffffffffffffffffffffffff16021790555080600660008773ffffffffffffffffffffffffffffffffffffffff1673ffffffffffffffffffffffffffffffffffffffff1681526020019081526020016000208481548110151561250f57fe5b9060005260206000209001819055506000600660008773ffffffffffffffffffffffffffffffffffffffff1673ffffffffffffffffffffffffffffffffffffffff1681526020019081526020016000208381548110151561256c57fe5b906000526020600020900181905550600660008673ffffffffffffffffffffffffffffffffffffffff1673ffffffffffffffffffffffffffffffffffffffff1681526020019081526020016000208054809190600190036125cd9190612f64565b506000600660008773ffffffffffffffffffffffffffffffffffffffff1673ffffffffffffffffffffffffffffffffffffffff16815260200190815260200160002080549050141561266557600660008673ffffffffffffffffffffffffffffffffffffffff1673ffffffffffffffffffffffffffffffffffffffff16815260200190815260200160002060006126649190612f90565b5b600060086000868152602001908152602001600020819055508260086000838152602001908152602001600020819055506126ac6001600554612d3d90919063ffffffff16565b6005819055505050505050565b60006007600086815260200190815260200160002060009054906101000a900473ffffffffffffffffffffffffffffffffffffffff1690506126fb81866123dc565b6127058686612d56565b61270e86612e54565b156129645760001515600b60009054906101000a900460ff16151514151561273557600080fd5b6001600b60006101000a81548160ff0219169083151502179055508573ffffffffffffffffffffffffffffffffffffffff16633bde30728683898888886040518763ffffffff167c0100000000000000000000000000000000000000000000000000000000028152600401808781526020018673ffffffffffffffffffffffffffffffffffffffff1673ffffffffffffffffffffffffffffffffffffffff1681526020018573ffffffffffffffffffffffffffffffffffffffff1673ffffffffffffffffffffffffffffffffffffffff168152602001806020018473ffffffffffffffffffffffffffffffffffffffff1673ffffffffffffffffffffffffffffffffffffffff16815260200180602001838103835286818151815260200191508051906020019080838360005b8381101561287d578082015181840152602081019050612862565b50505050905090810190601f1680156128aa5780820380516001836020036101000a031916815260200191505b50838103825284818151815260200191508051906020019080838360005b838110156128e35780820151818401526020810190506128c8565b50505050905090810190601f1680156129105780820380516001836020036101000a031916815260200191505b5098505050505050505050600060405180830381600087803b151561293457600080fd5b6102c65a03f1151561294557600080fd5b5050506000600b60006101000a81548160ff0219169083151502179055505b848673ffffffffffffffffffffffffffffffffffffffff168273ffffffffffffffffffffffffffffffffffffffff167f8988d59efc2c4547ef86c88f6543963bab0cea94f8e486e619c7c3a790db93be868887604051808473ffffffffffffffffffffffffffffffffffffffff1673ffffffffffffffffffffffffffffffffffffffff1681526020018060200180602001838103835285818151815260200191508051906020019080838360005b83811015612a2d578082015181840152602081019050612a12565b50505050905090810190601f168015612a5a5780820380516001836020036101000a031916815260200191505b50838103825284818151815260200191508051906020019080838360005b83811015612a93578082015181840152602081019050612a78565b50505050905090810190601f168015612ac05780820380516001836020036101000a031916815260200191505b509550505050505060405180910390a4505050505050565b6001600a60008373ffffffffffffffffffffffffffffffffffffffff1673ffffffffffffffffffffffffffffffffffffffff16815260200190815260200160002060008473ffffffffffffffffffffffffffffffffffffffff1673ffffffffffffffffffffffffffffffffffffffff16815260200190815260200160002060006101000a81548160ff0219169083151502179055505050565b6000600a60008373ffffffffffffffffffffffffffffffffffffffff1673ffffffffffffffffffffffffffffffffffffffff16815260200190815260200160002060008473ffffffffffffffffffffffffffffffffffffffff1673ffffffffffffffffffffffffffffffffffffffff16815260200190815260200160002060006101000a81548160ff0219169083151502179055505050565b60006007600085815260200190815260200160002060009054906101000a900473ffffffffffffffffffffffffffffffffffffffff1673ffffffffffffffffffffffffffffffffffffffff16141515612c6257600080fd5b612c6d828483612e67565b3373ffffffffffffffffffffffffffffffffffffffff16838373ffffffffffffffffffffffffffffffffffffffff167ff7cf9a1c7469e5750e8c9caa9e40abc4830bb364336547bb7a0de846fedb4b9c846040518080602001828103825283818151815260200191508051906020019080838360005b83811015612cfe578082015181840152602081019050612ce3565b50505050905090810190601f168015612d2b5780820380516001836020036101000a031916815260200191505b509250505060405180910390a4505050565b6000828211151515612d4b57fe5b818303905092915050565b6000826007600084815260200190815260200160002060006101000a81548173ffffffffffffffffffffffffffffffffffffffff021916908373ffffffffffffffffffffffffffffffffffffffff160217905550612db3836113d4565b9050600660008473ffffffffffffffffffffffffffffffffffffffff1673ffffffffffffffffffffffffffffffffffffffff1681526020019081526020016000208054806001018281612e069190612fb1565b916000526020600020900160008490919091505550806008600084815260200190815260200160002081905550612e496001600554612e9e90919063ffffffff16565b600581905550505050565b600080823b905060008111915050919050565b612e718383612d56565b80600960008481526020019081526020016000209080519060200190612e98929190612ed0565b50505050565b6000808284019050838110151515612eb257fe5b8091505092915050565b602060405190810160405280600081525090565b828054600181600116156101000203166002900490600052602060002090601f016020900481019282601f10612f1157805160ff1916838001178555612f3f565b82800160010185558215612f3f579182015b82811115612f3e578251825591602001919060010190612f23565b5b509050612f4c9190612fdd565b5090565b602060405190810160405280600081525090565b815481835581811511612f8b57818360005260206000209182019101612f8a9190612fdd565b5b505050565b5080546000825590600052602060002090810190612fae9190612fdd565b50565b815481835581811511612fd857818360005260206000209182019101612fd79190612fdd565b5b505050565b612fff91905b80821115612ffb576000816000905550600101612fe3565b5090565b905600a165627a7a7230582046387db5c77aa5201f6c8a8ab550c6bc76f386daec94d87ad52955615c13820e0029",
  "source": "pragma solidity ^0.4.18;\n\nimport '../Storage.sol';\n\nimport '../Upgradable/Ownable.sol';\n\nimport '../Upgradable/IApplication.sol';\n\nimport '../AssetRegistry/StandardAssetRegistry.sol';\n\nimport './ILANDRegistry.sol';\n\ncontract LANDRegistry is Storage,\n  Ownable, StandardAssetRegistry,\n  IApplication, ILANDRegistry\n{\n\n  function initialize(bytes /* data */) public {\n    _name = 'Decentraland LAND';\n    _symbol = 'LAND';\n    _description = 'Contract that stores the Decentraland LAND registry';\n  }\n\n  //\n  // Land is assignable by the owner\n  //\n\n  function assignNewParcel(int x, int y, address beneficiary, string data) public {\n    generate(buildTokenId(x, y), beneficiary, data);\n  }\n\n  function assignNewParcel(int x, int y, address beneficiary) public {\n    generate(buildTokenId(x, y), beneficiary, '');\n  }\n\n  function assignMultipleParcels(int[] x, int[] y, address beneficiary) public {\n    for (uint i = 0; i < x.length; i++) {\n      generate(buildTokenId(x[i], y[i]), beneficiary, '');\n    }\n  }\n\n  function generate(uint256 _assetId, address _beneficiary, string _data) onlyOwner public {\n    doGenerate(_assetId, _beneficiary, _data);\n  }\n\n  function destroy(uint256 _assetId) onlyOwner public {\n    _removeAssetFrom(_holderOf[_assetId], _assetId);\n    Destroy(_holderOf[_assetId], _assetId, msg.sender);\n  }\n\n  //\n  // Inactive keys after 1 year lose ownership\n  //\n\n  function ping() public {\n    latestPing[msg.sender] = now;\n  }\n\n  function setLatestToNow(address user) onlyOwner public {\n    latestPing[user] = now;\n  }\n\n  function clearLand(int[] x, int[] y) public {\n    require(x.length == y.length);\n    for (uint i = 0; i < x.length; i++) {\n      uint landId = buildTokenId(x[i], y[i]);\n      address holder = holderOf(landId);\n      if (latestPing[holder] < now - 1 years) {\n        _removeAssetFrom(holder, landId);\n        Destroy(holder, landId, msg.sender);\n      }\n    }\n  }\n\n  //\n  // LAND Getters\n  //\n\n  function buildTokenId(int x, int y) view public returns (uint) {\n    return ((uint(x) * factor) & clearLow) | (uint(y) & clearHigh);\n  }\n\n  function exists(int x, int y) view public returns (bool) {\n    return exists(buildTokenId(x, y));\n  }\n\n  function ownerOfLand(int x, int y) view public returns (address) {\n    return holderOf(buildTokenId(x, y));\n  }\n\n  function landData(int x, int y) view public returns (string) {\n    return assetData(buildTokenId(x, y));\n  }\n\n  //\n  // Transfer LAND\n  //\n\n  function transferLand(int x, int y, address to) public {\n    return transfer(to, buildTokenId(x, y));\n  }\n\n  function transferManyLand(int[] x, int[] y, address to) public {\n    require(x.length == y.length);\n    for (uint i = 0; i < x.length; i++) {\n      return transfer(to, buildTokenId(x[i], y[i]));\n    }\n  }\n\n  //\n  // Update LAND\n  //\n  function updateLandData(int x, int y, string _metadata) public {\n    return update(buildTokenId(x, y), _metadata);\n  }\n\n  function updateManyLandData(int[] x, int[] y, string data) public {\n    require(x.length == y.length);\n    for (uint i = 0; i < x.length; i++) {\n      update(buildTokenId(x[i], y[i]), data);\n    }\n  }\n}\n",
  "sourcePath": "/Users/eordano/Decentraland/land/contracts/Land/LANDRegistry.sol",
  "compiler": {
    "name": "solc",
    "version": "0.4.18+commit.9cf6e910.Emscripten.clang"
  },
  "schemaVersion": "1.0.1",
  "updatedAt": "2018-01-08T21:34:03.308Z"
}